:020000040800F2
:1000000018070020B5010008C9190008C119000827
:10001000C519000871020008F51A00080000000068
:10002000000000000000000000000000D1190008DE
:100030007502000800000000CD190008D51900085D
:10004000CF010008CF010008CF010008CF01000850
:10005000CF010008CF010008CF010008CF01000840
:10006000CF010008CF010008CF010008CF01000830
:10007000CF010008CF010008CF010008CF01000820
:10008000CF010008CF010008CF010008CF01000810
:10009000CF010008CF010008CF0100087902000855
:1000A000CF010008CF010008CF010008CF010008F0
:1000B000CF010008CF010008CF010008CF010008E0
:1000C000CF010008CF010008CF010008CF010008D0
:1000D000CF010008E91A0008CF010008CF0100088D
:1000E000CF010008CF010008CF01000800F002F89E
:1000F00000F050F814A696E8000CB244B344DA4578
:1001000001D100F047F8BAE80F000FA696E83000DA
:10011000A5EB040504EB0607AAEB0704A7F101070A
:100120004FEA15154FEA3414A4F10104AC4201D38F
:1001300000F030F813F0010F18BFFB1A43F0010371
:1001400000F001F8DBE71847941B0000B41B000027
:10015000103A24BF78C878C1FAD8520724BF30C8F3
:1001600030C144BF04680C60704700007047000055
:100170000023002400250026103A28BF78C1FBD8B0
:10018000520728BF30C148BF0B6070471FB51FBD65
:1001900010B510BD00F031F81146FFF7F7FF01F080
:1001A000ABFC00F04FF803B4FFF7F2FF03BC00F024
:1001B00057F800000948804709480047FEE7FEE776
:1001C000FEE7FEE7FEE7FEE7FEE7FEE7FEE7FEE707
:1001D00004480549054A064B70470000D919000834
:1001E000ED00000818010020180700201803002067
:1001F00018030020704770477047754600F02CF8D0
:10020000AE4605006946534620F00700854618B003
:1002100020B5FFF7DDFFBDE820404FF000064FF0AE
:1002200000074FF000084FF0000BAC46ACE8C009E7
:10023000ACE8C009ACE8C009ACE8C00921F007018E
:100240008D46704710B50446AFF300802046BDE8E8
:100250001040FFF7A8BF00000048704710000020C2
:1002600001491820ABBEFEE72600020070470000DF
:10027000FEE70000704700004FF4807000F08EB879
:10028000014690F82100022816D10868D1E90FC371
:10029000026822F00E020260026822F0010202608F
:1002A000012000FA03F2CCF8042081F8210000209C
:1002B000002281F82020704704208863012000225A
:1002C00081F820207047000090F82110022923D1E6
:1002D000026840F2040C1168C4F2020C21F00E0115
:1002E000116013682F21C4F202018A4223F0010336
:1002F000136015DD3023C4F202039A421CD044235C
:10030000C4F202039A421BD05823C4F202039A4259
:100310001CD14FF4803321E0042181630120704718
:100320000823C4F202039A420ED01C23C4F2020333
:100330009A420BD1102311E04FF480730EE000BFFE
:100340004FF480530AE000BF012307E00CF168017D
:100350004FF080738A4208BF4FF480130121CCF81C
:10036000003080F82110416B0022002980F8202005
:1003700004BF0020704780B58847002080BD000082
:10038000B0F5807F18BF704740F27001C2F20001E3
:1003900001F1140014220A2301F046BA40F214417C
:1003A000C4F201010A68024214BF08607047FFF7F7
:1003B000E7BF00002DE9F04F82B00E68002E00F07C
:1003C000FD8041F20042C4F20102042340F2004EDB
:1003D000904208BF03234FF6FF7CC4F2010E009346
:1003E00000240123C1F2100C4FF0000A4FF0000965
:1003F0004BE000BF41F20002C4F20102009F9042B4
:1004000008BF022704F00C030F229A402BEA0202D5
:1004100007FA03F34FEA9A051A4346F825204E6877
:1004200040F20C45F202DEF8082054BF22EA08022E
:1004300042EA0802C4F20105CEF808202A68B30295
:1004400054BF22EA080242EA08022A60B303DEF837
:10045000042054BF22EA080242EA0802F303CEF85D
:100460000420DEF800204FF0010354BF22EA080206
:1004700042EA0802CEF800200E680AF1010A36FAB4
:100480000AF204F1040400F0998003FA0AFB16EA68
:100490000B08F1D04E68664512DC122E56D8DFE804
:1004A00006F0350B4D49555555555555555555552E
:1004B00055555545510000BFD1F80C9046E000BF9E
:1004C0004FF6FF72C1F2210296420FDC0022C1F208
:1004D000110296421AD00022C1F21202964215D0A1
:1004E0000022C1F22102964210D02FE00022C1F278
:1004F000220296420AD00022C1F23102964205D071
:100500000022C1F23202964220D100BF8A684AB16D
:10051000012A14BFC0F814B0C0F810B04FF0080999
:1005200014E000BF4FF0040910E000BFCA6802F1F8
:1005300004090BE04FF0000908E000BFCA6802F1AF
:10054000080903E0CA6802F10C0900BF024626460A
:10055000B8F5807F24BF0432203E17680F25B540D0
:1005600027EA050509FA06F635431560CA79D20669
:100570007FF582AF41F21803C4F202031A68AEF5A8
:100580007E7642F001021A601A6802F001020192BE
:10059000019A2AF0030256F802B040F60002C4F2B3
:1005A0000102904208D040F60042C4F2010290429B
:1005B0007FF420AF012725E7002723E702B0BDE83D
:1005C000F08F0000002A08BF090401617047000095
:1005D00040F21410C2F200000068704740F20000C0
:1005E00040F21411C2F20000C2F2000100780A6861
:1005F000104408607047000080B542F20000C4F269
:100600000200016841F010010160032000F08CF845
:10061000002000F005F800F027F8002080BD000061
:1006200070B540F20006C2F2000640F208013278CE
:10063000C2F200014FF47A730968B3FBF2F2044688
:10064000B1FBF2F1084600F085FB0F2C4FF00105DD
:1006500008D838B94FF0FF3021460022002500F0BD
:1006600037F87460284670BD82B041F21800C4F2B9
:1006700002000168022241F001010160016801F0FD
:10068000010101910199416841F080514160406848
:1006900000F08050009000980420C4F2010001682E
:1006A00062F31A61016002B070470000002848BF81
:1006B000704700F01F01012202FA01F11C2202EA38
:1006C000D0004EF20012CEF20002815070470000BE
:1006D00010B54EF60C5CCEF2000CDCF80030C3F323
:1006E000022E8EF00704042C28BF0424BEF103035D
:1006F0004FF0FF3E0EFA04F438BF0023A1439940A7
:100700000EFA03F39A43114300F00F0200F1604325
:100710000901043A03F564436244002848BF02F12A
:100720000C03197010BD00004EF60C51CEF2000102
:100730000A684FF6FF031A4060F30A2242F0806015
:1007400040F0FD7008607047002804BF012070472A
:100750002DE9F04381B042F20008C4F202080446D9
:10076000D8F800000D4600F0070081420CD9D8F8F7
:10077000000020F007002843C8F80000D8F8000067
:1007800000F00700A8426CD1206841F204098107FB
:10079000C4F2020917D5410705D5D9F8001041F474
:1007A000E061C9F80010010705D5D9F8001041F43F
:1007B0006051C9F80010D9F80010A26821F0F001CA
:1007C0001143C9F80010C00742D1D8F8000000F06A
:1007D000070085420CD2D8F8000020F0070028431B
:1007E000C8F80000D8F8000000F00700A84238D18F
:1007F0002068410707D5D9F80010E26821F4E061CC
:100800001143C9F80010000708D5D9F80000216984
:1008100020F4605040EAC100C9F80000D9F8002077
:1008200002F00C00082841F20020C0F27A004DD1FD
:1008300041F6CC43C2F38341C0F60003595CD203B6
:1008400038D440F60010C0F23D0048433EE000BFFF
:10085000606859F8041C022808D0012826D18903B1
:1008600006D4012001B0BDE8F08300BF8901F8D5AE
:10087000D9F8001021F003010843C9F80000FFF780
:10088000A7FE064641F28837D9F80000616800F0FB
:100890000C00B0EB810F98D0FFF79AFE801BB84296
:1008A000F2D9032001B0BDE8F08300BF8907D8D595
:1008B000DEE700BFD9F8002041F6CA43C2F3404248
:1008C000C0F600039A5C4843B0FBF2F0D9F8001080
:1008D00041F6B242C1F30311C0F60002515C40F28E
:1008E000080220FA01F140F20400C2F200000068A0
:1008F000C2F200021160FFF793FE002001B0BDE8D4
:10090000F083000040F2080041F20401C2F200004E
:10091000C4F202010068096841F6C242C1F3022133
:10092000C0F60002515CC8407047000040F2080069
:1009300041F20401C2F20000C4F202010068096839
:1009400041F6C242C1F3C221C0F60002515CC84068
:1009500070470000002804BF012070472DE9F041D6
:1009600082B00446007841F20006C007C4F20206D5
:100970000CD0706800F00C00042840F081803068D2
:10098000800303D56068002800F046812078800746
:100990001BD5706810F00C0F09D0706800F00C00C7
:1009A000082840F087807068C00300F183803068B9
:1009B000800703D52069012840F02E8130686169E5
:1009C00020F0F80040EAC10030602078000713D41E
:1009D000207840072CD4E569002D00F0188170685C
:1009E00000F00C00082840F0A780012D40F00481A1
:1009F000012002B0BDE8F081A069002800F08480E9
:100A00000020C4F242200121C0F88014FFF7E0FD6D
:100A1000054600BF706A800700F1B280FFF7D8FD7D
:100A2000401B0228F6D9032002B0BDE8F08100BFC8
:100A3000F0695FEAC00808D4F06940F08050F061C6
:100A4000F06900F080500090009847F20007C4F26F
:100A500000073868C00549D4386840F480703860B1
:100A6000FFF7B6FD054600BF3868C0053ED4FFF766
:100A7000AFFD401B6428F7D9032002B0BDE8F08128
:100A8000706800F00C00082803D17068C0033FF5BF
:100A900076AF61683068002900F00C81B1F5A02FB5
:100AA00000F00081B1F5803F40F01A8140F48030C1
:100AB0001CE100BF2069002840F20000C4F242207F
:100AC00000F0888001210160FFF782FD054600BF2C
:100AD000306880073FF572AFFFF77AFD401B0228B0
:100AE000F6D9032002B0BDE8F08100BFE168306AAA
:100AF000002900F09D80052900F09280012940F036
:100B0000AF8040F00100B1E00020C4F2422000219B
:100B1000C0F88014FFF75CFD054600BF706A8007CF
:100B20007FF556AFFFF754FD401B0228F6D903208E
:100B300002B0BDE8F08100BF0027C4F242270020C8
:100B40003866FFF745FD022D05460DD1306880015E
:100B500040F1DE80FFF73CFD401B02284FF0030010
:100B6000F4D902B0BDE8F081306880014FD5FFF7BD
:100B70002FFD401B02284FF00300F5D9F1E700BF1D
:100B800040F20800C2F20000006844F6D351C1F2FE
:100B90006201A0FB0101480A019000BF00BF01985B
:100BA000411E002801913FF413AF00BF0198411E80
:100BB000002801913FF40CAF00BF0198411E0028AE
:100BC00001913FF405AF00BF0198411E002801913B
:100BD000E4D1FDE600210160FFF7FAFC054600BF05
:100BE000306880077FF5F1AEFFF7F2FC401B02286A
:100BF0004FF00300F4D9B4E77068216A00F4803242
:100C00008A4209D1616A00F47010884204D1002040
:100C100002B0BDE8F08100BF012002B0BDE8F08164
:100C200040F004003062306A40F001001EE000BF76
:100C300020F001003062306A20F004003062FFF7DB
:100C4000C7FC054641F28837306A800720D5FFF798
:100C5000BFFC401BB8424FF00300F5D981E700BF4D
:100C600020F001003062306A20F004003062FFF7AB
:100C7000AFFC054641F28837306A800708D4FFF799
:100C8000A7FC401BB842F7D9032002B0BDE8F081B1
:100C9000B8F1000F3FF59FAEF06920F08050F06191
:100CA00099E600BF40F480203060306840F4803026
:100CB0001CE000BF20F480303060306820F48020D9
:100CC0003060FFF785FC0546306880037FF55EAE37
:100CD000FFF77EFC401B64284FF00300F4D940E787
:100CE00020F480303060306820F480203060FFF7DE
:100CF0006FFC0546306880033FF548AEFFF768FC9F
:100D0000401B6428F6D9032002B0BDE8F08100BF83
:100D1000206AB0F5803F05D17168A26821F40031E6
:100D2000114371607168626A21F4741111430843C0
:100D3000706001203866FFF74BFC04463068800184
:100D40003FF565AFFFF744FC001B02284FF003009E
:100D5000F4D906E7411E0020B0EB116F1CBF012043
:100D600070474EF21002CEF2000251604EF623514F
:100D7000CEF20001F0230B700721906011607047E4
:100D800090F83C20012A4FF0020236D010B580F8CE
:100D90003D200268D2F804E0D2F808C00C682EF0BA
:100DA0007003234340F2FF74C4F20004A242536074
:100DB0000ADCB2F1804F13D040F20043C4F20003CA
:100DC0009A420DD011E000BF42F60043C4F2010385
:100DD0009A4205D040F60003C4F200039A4204D1BF
:100DE00049682CF08003194391600121002280F8AA
:100DF0003D1080F83C20BDE81040104670470000D0
:100E0000002804BF0120704710B590F83D1031B99B
:100E1000002180F83C10044600F070F820460221C2
:100E200080F83D10016840F2FF740B68C4F20004C2
:100E300042F6004CA142C4F2010C15DCB1F1804F26
:100E40001AD040F20042C4F20002914214D0A142F2
:100E500018DCB1F1804F1DD040F20042C4F2000214
:100E6000914217D01AE000BF614505D040F600025C
:100E7000C4F200029142EAD1826823F07003134366
:100E8000A142E6DD614505D040F60002C4F2000251
:100E9000914203D1026923F440731343846923F020
:100EA0008002D0F804E0C368224361450A60CB6247
:100EB000C1F828E002D14269CCF8302001224A6111
:100EC0000B69DB0703D00B6923F001030B6180F88A
:100ED000462080F83E2080F83F2080F8402080F8AF
:100EE000412080F8422080F8432080F8442080F898
:100EF000452080F83D20002010BD0000006840F62D
:100F00000001C4F20001884218BF704781B041F26D
:100F10001C00C4F20200016841F004010160006895
:100F200000F004000090009801B0704790F83C2059
:100F3000012A4FF002026CD080B580F83D20D0F835
:100F400000C04FF67772DCF8083023EA0202CCF8D2
:100F500008200B684F2B29DC1F2B45DD202B46D0AA
:100F6000302B44D0402B40F0AF80D1F804E0C9686A
:100F7000DCF82030DCF8202022F00102CCF8202020
:100F8000DCF8182022F0F00242EA011123F00A02F4
:100F900042EA0E02CCF81810CCF82020DCF8081039
:100FA00041F0470121F0300128E000BF6F2B33DD15
:100FB000B3F5005F74D0B3F5805F21D0702B40F0A3
:100FC0008380D1E901E3C968DCF8082043EA0E0315
:100FD00022F47F4243EA01211143CCF80810DCF8E7
:100FE000081041F0770109E00BB1102B6CD1DCF84F
:100FF000081021F07001194341F00701CCF80810E6
:101000000022012180F83D10002180F83C10BDE84D
:1010100080401046704700BF502B21D0602B53D129
:10102000D1F804E0C968DCF82030DCF8202022F098
:101030001002CCF82020DCF8182022F4704242EA9A
:10104000013123F0A00242EA0E12CCF81810CCF8BD
:101050002020DCF8081041F0670121F01001CDE7F5
:10106000D1F804E0C968DCF82030DCF8202022F058
:101070000102CCF82020DCF8182022F0F00242EA2D
:10108000011123F00A0242EA0E02CCF81810CCF843
:101090002020DCF8081041F0570121F02001ADE7D5
:1010A000D1E901E3C968DCF8082043EA0E0322F421
:1010B0007F4243EA01211143CCF80810DCF8081004
:1010C00041F480419AE700BF01229AE7704700008F
:1010D00070470000B0B582B001680A68CC684B69FF
:1010E00002F02F05202D04F0200505D125B102B016
:1010F000BDE8B04000F078BC5FEA027C1EBF03F0A0
:10110000010E04F4907313EB0E0341D1036BD5066B
:1011100018D5012B16D114F0100313D00022019220
:101120000A6801924A680192019A496949064BD4BA
:10113000818DC28DC38D002B18BF914240F0F48188
:1011400002B0B0BD13062DD514F080032AD090F85C
:101150004120212AF4D18268B2F5805F03D102696F
:10116000002A00F06782026A531C036212784A6008
:10117000C28C013A1304C284E2D1C86820F0800016
:10118000C860C86840F04000C86002B0B0BD00BF91
:10119000D30718BF14F4807340F0D080530700F1D8
:1011A000D380D8E05206CBD514F04002C8D0CA682C
:1011B00022F04002CA60202180F8411002B0BDE850
:1011C000B04000F0FBBB00BFC16B0A68526893B22D
:1011D000002BB5D0858DAB42B2D2C285896920295A
:1011E00000F0A180016851E8031F026821F48071BA
:1011F00042E80313DBB1016851E8031F026821F4E0
:10120000807142E8031393B1016851E8031F02683B
:1012100021F4807142E803134BB1016851E8031FC8
:10122000026821F4807142E80313002BDAD10168CF
:1012300051E8051F026821F0010142E80513C3B31C
:10124000016851E8051F026821F0010142E8051319
:101250007BB3016851E8051F026821F0010142E8F3
:10126000051333B3016851E8051F026821F001013D
:1012700042E80513002BDAD11BE000BF016851E8FA
:10128000051F026821F0400142E80513DBB1016847
:1012900051E8051F026821F0400142E8051393B1AF
:1012A000016851E8051F026821F0400142E805137A
:1012B0004BB1016851E8051F026821F0400142E886
:1012C0000513002BDAD1202180F8421000210163A0
:1012D000016851E8031F026821F0100142E803137E
:1012E000DBB1016851E8031F026821F0100142E8F8
:1012F000031393B1016851E8031F026821F0100144
:1013000042E803134BB1016851E8031F026821F062
:10131000100142E80313002BDAD1C16B04460846E2
:10132000FEF7AEFF204602214163818DC28D891AEE
:1013300089B202B0BDE8B040FFF7C8BE436C43F0CD
:1013400001034364530706D5BEF1000F03D0436C7D
:1013500043F002034364930706D5BEF1000F03D0A8
:10136000436C43F004034364BCF1000F06D55EEA0E
:10137000050303D0436C43F008034364436C002B24
:101380003FF4DEAE920605D525B1044600F02CFBF5
:10139000216820464969426C01F0400102F00802D0
:1013A000891800F0B98000BF016851E8031F026886
:1013B00021F4907142E80313BBB3016851E8031FA5
:1013C000026821F4907142E8031373B3016851E895
:1013D000031F026821F4907142E803132BB30168E4
:1013E00051E8031F026821F4907142E80313002BB7
:1013F000DAD11AE0016851E8051F026821F0010105
:1014000042E80513DBB1016851E8051F026821F0CD
:10141000010142E8051393B1016851E8051F026814
:1014200021F0010142E805134BB1016851E8051FA5
:10143000026821F0010142E80513002BDAD1016BAB
:10144000012924D1016851E8031F026821F010012D
:1014500042E80313DBB1016851E8031F026821F081
:10146000100142E8031393B1016851E8031F0268B9
:1014700021F0100142E803134BB1016851E8031F4A
:10148000026821F0100142E80313002BDAD1202179
:1014900080F842100021016301684969490640F162
:1014A000C380016851E8051F026821F0400142E84D
:1014B0000513DBB1016851E8051F026821F0400106
:1014C00042E8051393B1016851E8051F026821F055
:1014D000400142E805134BB1016851E8051F02685D
:1014E00021F0400142E80513002BDAD1C16B00293D
:1014F00000F09A8041F6DD12C0F60002044608466C
:101500004A63FEF7E1FE00283FF41AAEE06B416B40
:1015100002B0BDE8B04008470446FFF7D9FD0020FF
:10152000606402B0B0BD00BF891A00BF026852E813
:10153000032F036822F4907243E80325BDB30268C9
:1015400052E8032F036822F4907243E8032575B331
:10155000026852E8032F036822F4907243E80325DF
:101560002DB3026852E8032F036822F4907243E817
:101570000325002DDAD11AE0026852E8052F03682E
:1015800022F0010243E80525DDB1026852E8052F8B
:10159000036822F0010243E8052595B1026852E88C
:1015A000052F036822F0010243E805254DB10268CA
:1015B00052E8052F036822F0010243E80525002DBB
:1015C000DAD1202280F8422000220263026852E829
:1015D000032F036822F0100243E80325DDB10268FF
:1015E00052E8032F036822F0100243E8032595B167
:1015F000026852E8032F036822F0100243E8032533
:101600004DB1026852E8032F036822F0100243E84C
:101610000325002DDAD1022289B2426302B0BDE86F
:10162000B040FFF753BD00BF02B0BDE8B040FFF7C8
:101630004FBD00BF026A32F8023B6FF35F234B607D
:10164000026295E5002804BF0120704710B50446EA
:1016500090F8410028B9002084F84000204600F0AE
:1016600063F8242084F841002068D4E90212C3689A
:1016700023F40053C360036923F440531A43026107
:10168000D4E904231143C268194341F20C639A431D
:101690001143C1604169A26921F44071114343F6CD
:1016A0000002C4F201029042416103D0FFF72AF91F
:1016B00002E000BFFFF73AF9D4E9002319214843BB
:1016C0009900B0FBF1F048F21F5CC5F2EB1CA0FBE7
:1016D0000C314FF69C734909C0F6FF7301FB030000
:1016E000322303EB0010A0FB0C03F02000EA5310A0
:1016F00000EB0110C3F343110844906010692021EE
:1017000020F490401061506920F02A005061D068A8
:1017100040F40050D0600020606484F8411084F8E8
:101720004210606310BD000070B586B040F6000442
:10173000C4F20104006804F5405100268842059671
:10174000CDE90366029601D006B070BD41F21800E3
:10175000C4F20200016802AD41F4804101600168F9
:1017600001F4804101910199016841F00401016097
:101770000068294600F00400019001984FF40070C1
:10178000029002200390032005902046FEF712FEEF
:101790004FF48060CDE90206204629460496FEF704
:1017A00009FE252001210022FEF792FF2520FEF7E9
:1017B0007DFF06B070BD000090F84230202B07D1AD
:1017C00000294FF0010318BF002A05D118467047C1
:1017D00002231846704700BF002303638162222161
:1017E0008285C285436480F842100169006819B19E
:1017F000C16841F48071C160416941F001014161FA
:10180000C16841F02001C1601846704740F2700184
:10181000C2F2000100684A69904218BF704701F1A6
:1018200014001422FFF7C8BF2DE9F04381B004462D
:1018300090F84100202809D100294FF0010018BF7D
:10184000002A07D101B0BDE8F08300BF022001B03B
:10185000BDE8F0830020606421201D460E4684F818
:1018600041001746FEF7B4FEA784E784A1688146CD
:10187000B1F5805F02D1206900285DD03746002095
:10188000E28C2168002A5DD06A1C24D0002D4AD049
:10189000804600BF0868000608D4FEF799FEA0EB5A
:1018A0000900A8427AD82168C868F3E717B117F889
:1018B000010B04E038F8020B00276FF35F2048604B
:1018C000E08C0138E084E08C0028E3D13AE000BFEE
:1018D0000A68120609D40A68120606D40A681206B3
:1018E0005CBF0A685FEA0262F2D51FB117F8012BEC
:1018F00005E000BF30F8022B00276FF35F224A603B
:10190000E28C013AE284E28C002AE4D11AE000BFC2
:1019100030F8022B00276FF35F224A60E28C013A15
:10192000E284E28C72B10A68120635D5002FEFD03E
:1019300017F8012BF1E700BF00273046E28C216841
:10194000002AA1D1086840061ED42DB3681C14D10A
:10195000086840062AD40868400627D4086840066C
:1019600024D4086840064FF00000F1D50DE000BF18
:101970002068C1680068400618D4FEF729FEA0EB75
:101980000900A842F4D909E00020202184F8411080
:1019900001B0BDE8F08300BFFEF71AFE032020214E
:1019A00084F8411001B0BDE8F08300BF0020202181
:1019B00084F8411001B0BDE8F083000070470000DA
:1019C000FEE70000FEE70000FEE7000070470000B1
:1019D00070470000FEF702BE70470000406A002119
:1019E000C185C184FFF774BB81B090F842102229F1
:1019F00021D183680246B3F5805F09D152F8281FD0
:101A000052F8183C002B63D003685B680AE000BF03
:101A100052F8281F13B90369002BF5D003685B68DF
:101A200003F07F030B70116801311160C18D013922
:101A30000A04C18502D001B0704700BF0168CA68BE
:101A400022F02002CA60CA6822F48072CA604A6921
:101A500022F001024A61202180F8421000214163F6
:101A6000026B012A3CD10163016851E8031F02683F
:101A700021F0100142E80313DBB1016851E8031FB4
:101A8000026821F0100142E8031393B1016851E8A4
:101A9000031F026821F0100142E803134BB10168F3
:101AA00051E8031F026821F0100142E80313002BE4
:101AB000DAD101680A68D20606D5002200920A68C7
:101AC0000092496800910099818D01B0FFF7FEBA3C
:101AD000026852686FF35F2221F8022B8162A5E74A
:101AE00001B0FFF793BE000040F28400C2F2000094
:101AF000FFF7F0BAFEE7000090B0FEF77DFD00248E
:101B00000120CDE90B44CDE9094406900A904FF439
:101B1000E0104FF4803102250F9006A8CDE907149C
:101B2000CDE90D51FEF716FF20B1EFF3108072B62C
:101B3000FEE700BF0F20CDE900054FF48060CDE93E
:101B40000304684602210294FEF7FEFD20B1EFF384
:101B5000108072B6FEE700BF002641F21800CDE902
:101B60000866CDE90666C4F20200016841F200048D
:101B700041F0100101600168C4F2010401F010019C
:101B8000009100990168002241F020010160016884
:101B90004FF4005501F0200100910099016841F0D7
:101BA0000401016000684FF4005100F0040000904F
:101BB00000982046FEF706FD01200695CDE90706B0
:101BC000022006AD099020462946FEF7F3FB4FF4AC
:101BD000807006900020C1F22100CDE90706A4F52F
:101BE00000602946FEF7E6FB172002210022FEF7DF
:101BF0006FFD1720FEF75AFD40F2CC00A4F58431AA
:101C0000C2F2000040F2F3130996CDE90766CDE970
:101C1000006641F63F7280E84600C0E903368661FF
:101C2000FFF7EEF820B1EFF3108072B6FEE700BFC9
:101C30004FF48050069040F2CC00C2F2000006A99A
:101C4000FFF774F920B1EFF3108072B6FEE700BF22
:101C500040F2CC00C2F200006946FFF791F828B1CB
:101C6000EFF3108072B600BFFEE700BF04F520510D
:101C700040F27004C2F20004204640F8141F4FF4F2
:101C8000E13100220C23C0E90112C0E90322C0E9BE
:101C90000532C261FFF7D6FC20B1EFF3108072B6B7
:101CA000FEE700BF04F1140021461422FFF784FD73
:101CB000FEE7000000000000000001020304060728
:101CC00008090000000001020304010202030405E8
:101CD000060708090A0B0C0D0E0F1010001D000856
:101CE000000000201000000050010008101D000836
:101CF000100000200807000070010008000000002C
:101D0000010000001000000000127A000000000036
:04000005080000ED02
:00000001FF
